:03000000020B658B
:0C0B6500787FE4F6D8FD758118020800C6
:10099400446F6F7220436C6F736564004D6F7669AA
:1009A4006E67205570004D6F76696E6720446F77CF
:1009B4006E00466C6F6F723A2000446F6F72204F66
:1009C40070656E004F7665726C6F616421005265CC
:1009D4006D6F76652057656967687400456C657648
:0B09E40061746F72205265616479003D
:0F0B4800E4FFFE0FBF00010EBE03F8BFE8F52269
:100ACC00E4FDFCC3ED9FEC9E5015E4FBFA0BBB0060
:100ADC00010ABA04F8BBFBF50DBD00010C80E42241
:070B1F007F01120B267F800D
:0E0B26008F90C2A5C2A6D2A7120B48C2A7226A
:0E0B57008F90D2A5C2A6D2A7120B48C2A72229
:100B34007F38120B267F0C120B267F06120B267FA2
:040B440001020B2679
:060AA1007BFF7A0979E0F9
:100AA7008B108A118912AB10AA11A912120B0660BA
:100AB700130512E5127002051114F9120B06FF1245
:050AC7000B5780E22244
:0C0A3B00E4FFFE120A4775B002E4FFFE63
:100A4700EF4E7026FFFEE4FDFCC3ED9518E5176435
:100A570080F8EC64809850070DBD00010C80EA0F08
:0B0A6700BF00010EBE01DFBFF4DC2267
:0C0B7100120B1F7BFF7A097994020AA77F
:10092B008E0E8F0F120B1F7BFF7A0979A0120AA76D
:10093B007B017A00D3EB950FE50E6480F8EA6480B7
:10094B0098503990000075B001120A3B75B004E461
:10095B00FFFE120A4775B008E4FFFE120A4775B096
:10096B0010E4FFFE120A47A3E582640B458370D6A1
:10097B00E5142BF5A00BBB00010A80B8E50F25147D
:09098B00F514E50E3513F51322F5
:1008B5008E0E8F0F120B1F7BFF7A0979AA120AA7DA
:1008C5007B017A00D3EB950FE50E6480F8EA64802E
:1008D500985045900000D3E5829516E5156480F89B
:1008E500E583648098502475B010E4FFFE120A4732
:1008F50075B008E4FFFE120A4775B004120A3B758D
:10090500B001E4FFFE120A47A380CBC3E5149BF5B3
:10091500A00BBB00010A80ACC3E514950FF514E5E7
:0609250013950EF51322EC
:100A7200AD07AC06120B1F7BFF7A0979B6120AA7E3
:100A8200ED2430FF120B577FC0120B267BFF7A0931
:0F0A920079BE120AA77FF47E01120ACC020B7103
:1009EF008E0A8F0BD3E50B9514E5136480F8E50A97
:1009FF006480984012E50B9514F50DE50A9513F5F3
:100A0F000CAF0DFE02092BC3E50B9514E5136480A3
:100A1F00F8E50A6480985013C3E514950BF50DE5BE
:0C0A2F0013950AF50CAF0DFE1208B5225D
:100AEC00120B1F7BFF7A0979C8120AA77FC0120B61
:0A0AFC00267BFF7A0979D2020AA7CF
:10080000E4F513F514F51575160AF51775180A129F
:100810000B34120AA18514A030B4030208A6E580A7
:10082000B402117508007509017F017E001209EFFD
:100830007F018056E580B404117508007509027FB8
:10084000027E001209EF7F028040E580B408117536
:1008500008007509037F037E001209EF7F03802AD9
:10086000E580B410117508007509047F047E00123C
:1008700009EF7F048014E580B42013750800750922
:10088000057F057E001209EF7F057E008012E5805E
:1008900064017084F508F509FFFE1209EFE4FFFE1C
:1008A000120A72020818120AEC20B4FD120B1F1271
:0508B0000AA102081876
:100B0600BB010689828A83E0225002E722BBFE02ED
:090B1600E32289828A83E4932220
:00000001FF
